{
  "contractName": "DappToken",
  "abi": [
    {
      "constant": true,
      "inputs": [],
      "name": "name",
      "outputs": [
        {
          "name": "",
          "type": "string"
        }
      ],
      "payable": false,
      "stateMutability": "view",
      "type": "function"
    },
    {
      "constant": true,
      "inputs": [],
      "name": "totalSupply",
      "outputs": [
        {
          "name": "",
          "type": "uint256"
        }
      ],
      "payable": false,
      "stateMutability": "view",
      "type": "function"
    },
    {
      "constant": true,
      "inputs": [],
      "name": "standard",
      "outputs": [
        {
          "name": "",
          "type": "string"
        }
      ],
      "payable": false,
      "stateMutability": "view",
      "type": "function"
    },
    {
      "constant": true,
      "inputs": [
        {
          "name": "",
          "type": "address"
        }
      ],
      "name": "balanceOf",
      "outputs": [
        {
          "name": "",
          "type": "uint256"
        }
      ],
      "payable": false,
      "stateMutability": "view",
      "type": "function"
    },
    {
      "constant": true,
      "inputs": [],
      "name": "symbol",
      "outputs": [
        {
          "name": "",
          "type": "string"
        }
      ],
      "payable": false,
      "stateMutability": "view",
      "type": "function"
    },
    {
      "constant": true,
      "inputs": [
        {
          "name": "",
          "type": "address"
        },
        {
          "name": "",
          "type": "address"
        }
      ],
      "name": "allowance",
      "outputs": [
        {
          "name": "",
          "type": "uint256"
        }
      ],
      "payable": false,
      "stateMutability": "view",
      "type": "function"
    },
    {
      "inputs": [
        {
          "name": "_initialSupply",
          "type": "uint256"
        }
      ],
      "payable": false,
      "stateMutability": "nonpayable",
      "type": "constructor"
    },
    {
      "anonymous": false,
      "inputs": [
        {
          "indexed": true,
          "name": "_from",
          "type": "address"
        },
        {
          "indexed": true,
          "name": "_to",
          "type": "address"
        },
        {
          "indexed": false,
          "name": "_value",
          "type": "uint256"
        }
      ],
      "name": "Transfer",
      "type": "event"
    },
    {
      "anonymous": false,
      "inputs": [
        {
          "indexed": true,
          "name": "_owner",
          "type": "address"
        },
        {
          "indexed": true,
          "name": "_spender",
          "type": "address"
        },
        {
          "indexed": false,
          "name": "_value",
          "type": "uint256"
        }
      ],
      "name": "Approval",
      "type": "event"
    },
    {
      "constant": false,
      "inputs": [
        {
          "name": "_to",
          "type": "address"
        },
        {
          "name": "_value",
          "type": "uint256"
        }
      ],
      "name": "transfer",
      "outputs": [
        {
          "name": "success",
          "type": "bool"
        }
      ],
      "payable": false,
      "stateMutability": "nonpayable",
      "type": "function"
    },
    {
      "constant": false,
      "inputs": [
        {
          "name": "_spender",
          "type": "address"
        },
        {
          "name": "_value",
          "type": "uint256"
        }
      ],
      "name": "approve",
      "outputs": [
        {
          "name": "success",
          "type": "bool"
        }
      ],
      "payable": false,
      "stateMutability": "nonpayable",
      "type": "function"
    },
    {
      "constant": false,
      "inputs": [
        {
          "name": "_from",
          "type": "address"
        },
        {
          "name": "_to",
          "type": "address"
        },
        {
          "name": "_value",
          "type": "uint256"
        }
      ],
      "name": "transferFrom",
      "outputs": [
        {
          "name": "success",
          "type": "bool"
        }
      ],
      "payable": false,
      "stateMutability": "nonpayable",
      "type": "function"
    }
  ],
  "bytecode": "0x60606040526040805190810160405280600a81526020017f4441707020546f6b656e000000000000000000000000000000000000000000008152506000908051906020019061004f929190610160565b506040805190810160405280600481526020017f44415050000000000000000000000000000000000000000000000000000000008152506001908051906020019061009b929190610160565b506040805190810160405280600f81526020017f4441707020546f6b656e2076312e300000000000000000000000000000000000815250600290805190602001906100e7929190610160565b5034156100f357600080fd5b604051602080610d6e8339810160405280805190602001909190505080600460003373ffffffffffffffffffffffffffffffffffffffff1673ffffffffffffffffffffffffffffffffffffffff168152602001908152602001600020819055508060038190555050610205565b828054600181600116156101000203166002900490600052602060002090601f016020900481019282601f106101a157805160ff19168380011785556101cf565b828001600101855582156101cf579182015b828111156101ce5782518255916020019190600101906101b3565b5b5090506101dc91906101e0565b5090565b61020291905b808211156101fe5760008160009055506001016101e6565b5090565b90565b610b5a806102146000396000f300606060405260043610610099576000357c0100000000000000000000000000000000000000000000000000000000900463ffffffff16806306fdde031461009e578063095ea7b31461012c57806318160ddd1461018657806323b872dd146101af5780635a3b7e421461022857806370a08231146102b657806395d89b4114610303578063a9059cbb14610391578063dd62ed3e146103eb575b600080fd5b34156100a957600080fd5b6100b1610457565b6040518080602001828103825283818151815260200191508051906020019080838360005b838110156100f15780820151818401526020810190506100d6565b50505050905090810190601f16801561011e5780820380516001836020036101000a031916815260200191505b509250505060405180910390f35b341561013757600080fd5b61016c600480803573ffffffffffffffffffffffffffffffffffffffff169060200190919080359060200190919050506104f5565b604051808215151515815260200191505060405180910390f35b341561019157600080fd5b6101996105e7565b6040518082815260200191505060405180910390f35b34156101ba57600080fd5b61020e600480803573ffffffffffffffffffffffffffffffffffffffff1690602001909190803573ffffffffffffffffffffffffffffffffffffffff169060200190919080359060200190919050506105ed565b604051808215151515815260200191505060405180910390f35b341561023357600080fd5b61023b61085c565b6040518080602001828103825283818151815260200191508051906020019080838360005b8381101561027b578082015181840152602081019050610260565b50505050905090810190601f1680156102a85780820380516001836020036101000a031916815260200191505b509250505060405180910390f35b34156102c157600080fd5b6102ed600480803573ffffffffffffffffffffffffffffffffffffffff169060200190919050506108fa565b6040518082815260200191505060405180910390f35b341561030e57600080fd5b610316610912565b6040518080602001828103825283818151815260200191508051906020019080838360005b8381101561035657808201518184015260208101905061033b565b50505050905090810190601f1680156103835780820380516001836020036101000a031916815260200191505b509250505060405180910390f35b341561039c57600080fd5b6103d1600480803573ffffffffffffffffffffffffffffffffffffffff169060200190919080359060200190919050506109b0565b604051808215151515815260200191505060405180910390f35b34156103f657600080fd5b610441600480803573ffffffffffffffffffffffffffffffffffffffff1690602001909190803573ffffffffffffffffffffffffffffffffffffffff16906020019091905050610b09565b6040518082815260200191505060405180910390f35b60008054600181600116156101000203166002900480601f0160208091040260200160405190810160405280929190818152602001828054600181600116156101000203166002900480156104ed5780601f106104c2576101008083540402835291602001916104ed565b820191906000526020600020905b8154815290600101906020018083116104d057829003601f168201915b505050505081565b600081600560003373ffffffffffffffffffffffffffffffffffffffff1673ffffffffffffffffffffffffffffffffffffffff16815260200190815260200160002060008573ffffffffffffffffffffffffffffffffffffffff1673ffffffffffffffffffffffffffffffffffffffff168152602001908152602001600020819055508273ffffffffffffffffffffffffffffffffffffffff163373ffffffffffffffffffffffffffffffffffffffff167f8c5be1e5ebec7d5bd14f71427d1e84f3dd0314c0f7b2291e5b200ac8c7c3b925846040518082815260200191505060405180910390a36001905092915050565b60035481565b6000600460008573ffffffffffffffffffffffffffffffffffffffff1673ffffffffffffffffffffffffffffffffffffffff16815260200190815260200160002054821115151561063d57600080fd5b600560008573ffffffffffffffffffffffffffffffffffffffff1673ffffffffffffffffffffffffffffffffffffffff16815260200190815260200160002060003373ffffffffffffffffffffffffffffffffffffffff1673ffffffffffffffffffffffffffffffffffffffff1681526020019081526020016000205482111515156106c857600080fd5b81600460008673ffffffffffffffffffffffffffffffffffffffff1673ffffffffffffffffffffffffffffffffffffffff1681526020019081526020016000206000828254039250508190555081600460008573ffffffffffffffffffffffffffffffffffffffff1673ffffffffffffffffffffffffffffffffffffffff1681526020019081526020016000206000828254019250508190555081600560008673ffffffffffffffffffffffffffffffffffffffff1673ffffffffffffffffffffffffffffffffffffffff16815260200190815260200160002060003373ffffffffffffffffffffffffffffffffffffffff1673ffffffffffffffffffffffffffffffffffffffff168152602001908152602001600020600082825403925050819055508273ffffffffffffffffffffffffffffffffffffffff168473ffffffffffffffffffffffffffffffffffffffff167fddf252ad1be2c89b69c2b068fc378daa952ba7f163c4a11628f55a4df523b3ef846040518082815260200191505060405180910390a3600190509392505050565b60028054600181600116156101000203166002900480601f0160208091040260200160405190810160405280929190818152602001828054600181600116156101000203166002900480156108f25780601f106108c7576101008083540402835291602001916108f2565b820191906000526020600020905b8154815290600101906020018083116108d557829003601f168201915b505050505081565b60046020528060005260406000206000915090505481565b60018054600181600116156101000203166002900480601f0160208091040260200160405190810160405280929190818152602001828054600181600116156101000203166002900480156109a85780601f1061097d576101008083540402835291602001916109a8565b820191906000526020600020905b81548152906001019060200180831161098b57829003601f168201915b505050505081565b600081600460003373ffffffffffffffffffffffffffffffffffffffff1673ffffffffffffffffffffffffffffffffffffffff1681526020019081526020016000205410151515610a0057600080fd5b81600460003373ffffffffffffffffffffffffffffffffffffffff1673ffffffffffffffffffffffffffffffffffffffff1681526020019081526020016000206000828254039250508190555081600460008573ffffffffffffffffffffffffffffffffffffffff1673ffffffffffffffffffffffffffffffffffffffff168152602001908152602001600020600082825401925050819055508273ffffffffffffffffffffffffffffffffffffffff163373ffffffffffffffffffffffffffffffffffffffff167fddf252ad1be2c89b69c2b068fc378daa952ba7f163c4a11628f55a4df523b3ef846040518082815260200191505060405180910390a36001905092915050565b60056020528160005260406000206020528060005260406000206000915091505054815600a165627a7a723058200489100d273e218747030590149e04f6e307c8dc7adfd4334c8b65c9e05696820029",
  "source": "pragma solidity ^0.4.20;\n\ncontract DappToken {\n  string public name = \"DApp Token\";\n  string public symbol = \"DAPP\";\n  string public standard = \"DApp Token v1.0\";\n  uint256 public totalSupply;\n\n  event Transfer(\n    address indexed _from,\n    address indexed _to,\n    uint256 _value\n  );\n\n  event Approval(\n    address indexed _owner,\n    address indexed _spender,\n    uint256 _value\n  );\n\n  mapping(address => uint256) public balanceOf;\n  mapping(address => mapping(address => uint256)) public allowance;\n\n  function DappToken(uint256 _initialSupply) public {\n    balanceOf[msg.sender] = _initialSupply;\n    totalSupply = _initialSupply;\n  }\n\n  function transfer(address _to, uint256 _value) public returns (bool success) {\n     // Exception if account does not have enough\n    require(balanceOf[msg.sender] >= _value);\n    \n    balanceOf[msg.sender] -= _value;\n    balanceOf[_to] += _value;\n    \n    Transfer(msg.sender, _to, _value);\n\n    return true;\n  }\n\n  function approve(address _spender, uint256 _value) public returns (bool success) {\n    allowance[msg.sender][_spender] = _value;\n\n    Approval(msg.sender, _spender, _value);\n    \n    return true;\n  }\n\n  function transferFrom(address _from, address _to, uint256 _value) public returns (bool success) {\n    require(_value <= balanceOf[_from]);\n    require(_value <=  allowance[_from][msg.sender]);\n\n    balanceOf[_from] -= _value;\n    balanceOf[_to] += _value;\n    \n    allowance[_from][msg.sender] -= _value;\n\n    Transfer(_from, _to, _value);\n    return true;\n  }\n\n  //transferfrom\n}\n\n//https://github.com/ethereum/EIPs/blob/master/EIPS/eip-20.md",
  "sourcePath": "/home/elisio/blockchain/token_sale/contracts/DappToken.sol",
  "compiler": {
    "name": "solc",
    "version": "0.4.20+commit.3155dd80.Emscripten.clang"
  },
  "schemaVersion": "3.0.9",
  "updatedAt": "2019-05-16T17:31:04.589Z",
  "devdoc": {
    "methods": {}
  },
  "userdoc": {
    "methods": {}
  }
}